{
  "contractName": "Lottery",
  "abi": [
    {
      "constant": true,
      "inputs": [],
      "name": "bal",
      "outputs": [
        {
          "name": "",
          "type": "uint256"
        }
      ],
      "payable": false,
      "stateMutability": "view",
      "type": "function"
    },
    {
      "constant": true,
      "inputs": [],
      "name": "guess1",
      "outputs": [
        {
          "name": "",
          "type": "bytes32"
        }
      ],
      "payable": false,
      "stateMutability": "view",
      "type": "function"
    },
    {
      "constant": true,
      "inputs": [],
      "name": "guess",
      "outputs": [
        {
          "name": "",
          "type": "bytes32"
        }
      ],
      "payable": false,
      "stateMutability": "view",
      "type": "function"
    },
    {
      "inputs": [
        {
          "name": "_guess2",
          "type": "bytes32"
        }
      ],
      "payable": false,
      "stateMutability": "nonpayable",
      "type": "constructor"
    },
    {
      "payable": true,
      "stateMutability": "payable",
      "type": "fallback"
    },
    {
      "constant": false,
      "inputs": [
        {
          "name": "_guess1",
          "type": "string"
        }
      ],
      "name": "makeGuess",
      "outputs": [],
      "payable": true,
      "stateMutability": "payable",
      "type": "function"
    },
    {
      "constant": false,
      "inputs": [],
      "name": "closeGame",
      "outputs": [],
      "payable": false,
      "stateMutability": "nonpayable",
      "type": "function"
    },
    {
      "constant": true,
      "inputs": [],
      "name": "winnerAddress",
      "outputs": [
        {
          "name": "",
          "type": "address"
        }
      ],
      "payable": false,
      "stateMutability": "view",
      "type": "function"
    }
  ],
  "bytecode": "0x60606040526000600660146101000a81548160ff021916908315150217905550341561002a57600080fd5b60405160208061081b83398101604052808051906020019091905050336000806101000a81548173ffffffffffffffffffffffffffffffffffffffff021916908373ffffffffffffffffffffffffffffffffffffffff16021790555080600181600019169055505061077a806100a16000396000f300606060405260043610610078576000357c0100000000000000000000000000000000000000000000000000000000900463ffffffff1680633d79d1c8146101415780636756d0ae1461016a578063786b844b1461019b578063a28b749a146101b0578063ec7c472c146101e1578063ed7a4e0b14610233575b600080349150670de0b6b3a76400008281151561009157fe5b04600481905550670de0b6b3a7640000828115156100ab57fe5b0690503373ffffffffffffffffffffffffffffffffffffffff166108fc829081150290604051600060405180830381858888f1935050505015156100ee57600080fd5b600454600560003373ffffffffffffffffffffffffffffffffffffffff1673ffffffffffffffffffffffffffffffffffffffff168152602001908152602001600020600082825401925050819055505050005b341561014c57600080fd5b610154610288565b6040518082815260200191505060405180910390f35b341561017557600080fd5b61017d61028e565b60405180826000191660001916815260200191505060405180910390f35b34156101a657600080fd5b6101ae610294565b005b34156101bb57600080fd5b6101c36104c3565b60405180826000191660001916815260200191505060405180910390f35b610231600480803590602001908201803590602001908080601f016020809104026020016040519081016040528093929190818152602001838380828437820191505050505050919050506104c9565b005b341561023e57600080fd5b610246610702565b604051808273ffffffffffffffffffffffffffffffffffffffff1673ffffffffffffffffffffffffffffffffffffffff16815260200191505060405180910390f35b60035481565b60025481565b60008060009054906101000a900473ffffffffffffffffffffffffffffffffffffffff1673ffffffffffffffffffffffffffffffffffffffff163373ffffffffffffffffffffffffffffffffffffffff161415156102f157600080fd5b6001600660146101000a81548160ff021916908315150217905550600073ffffffffffffffffffffffffffffffffffffffff16600660009054906101000a900473ffffffffffffffffffffffffffffffffffffffff1673ffffffffffffffffffffffffffffffffffffffff1614151561045e573073ffffffffffffffffffffffffffffffffffffffff163190506000809054906101000a900473ffffffffffffffffffffffffffffffffffffffff1673ffffffffffffffffffffffffffffffffffffffff166108fc6002838115156103c557fe5b049081150290604051600060405180830381858888f1935050505015156103eb57600080fd5b600660009054906101000a900473ffffffffffffffffffffffffffffffffffffffff1673ffffffffffffffffffffffffffffffffffffffff166108fc60028381151561043357fe5b049081150290604051600060405180830381858888f19350505050151561045957600080fd5b6104c0565b6000809054906101000a900473ffffffffffffffffffffffffffffffffffffffff1673ffffffffffffffffffffffffffffffffffffffff166108fc829081150290604051600060405180830381858888f1935050505015156104bf57600080fd5b5b50565b60015481565b60008060006001600560003373ffffffffffffffffffffffffffffffffffffffff1673ffffffffffffffffffffffffffffffffffffffff168152602001908152602001600020541015151561051d57600080fd5b349250670de0b6b3a76400008381151561053357fe5b049150670de0b6b3a76400008381151561054957fe5b06905081600560003373ffffffffffffffffffffffffffffffffffffffff1673ffffffffffffffffffffffffffffffffffffffff168152602001908152602001600020600082825403925050819055503373ffffffffffffffffffffffffffffffffffffffff166108fc829081150290604051600060405180830381858888f1935050505015156105d957600080fd5b60015460001916846040518082805190602001908083835b60208310151561061657805182526020820191506020810190506020830392506105f1565b6001836020036101000a038019825116818451168082178552505050505050905001915050604051809103902060001916141561068f5733600660006101000a81548173ffffffffffffffffffffffffffffffffffffffff021916908373ffffffffffffffffffffffffffffffffffffffff1602179055505b836040518082805190602001908083835b6020831015156106c557805182526020820191506020810190506020830392506106a0565b6001836020036101000a03801982511681845116808217855250505050505090500191505060405180910390206002816000191690555050505050565b600060011515600660149054906101000a900460ff16151514151561072657600080fd5b600660009054906101000a900473ffffffffffffffffffffffffffffffffffffffff169050905600a165627a7a72305820e44ea57f0b9d2d6c75d4f57ebe089c172c782b3e314992cb7a3df196e52691500029",
  "source": "pragma solidity ^0.4.0;\ncontract Lottery {\n    address creator;\n    bytes32 public guess;\n    bytes32 public guess1;\n    uint public bal;\n    uint  tokenToAdd;\n    mapping (address=>uint) balanceOf;\n    address public winnerAddress;\n    bool private gameClosed = false;\n    \n    function Lottery(bytes32 _guess2) public{\n        creator = msg.sender;\n        guess = _guess2;\n    }\n    \n    modifier onlyCreator() {\n        require(msg.sender == creator); \n        _;                              \n    } \n    \n    function () payable public{\n        uint amount = msg.value;\n        tokenToAdd = amount/1000000000000000000;\n        uint weiToReturn;\n        weiToReturn = amount%1000000000000000000;\n        msg.sender.transfer(weiToReturn);\n        balanceOf[msg.sender] += tokenToAdd;\n    }\n    \n    function makeGuess(string _guess1) payable public{\n        require(balanceOf[msg.sender]>=1);\n        uint amount = msg.value;\n        uint tokenToSubtract = amount/1000000000000000000;\n        uint weiToReturn = amount%1000000000000000000;\n        balanceOf[msg.sender] -= tokenToSubtract;\n        msg.sender.transfer(weiToReturn);\n        if(keccak256(_guess1)==guess){\n            winnerAddress = msg.sender;\n        }\n        guess1 = keccak256(_guess1);\n    }\n    \n    function closeGame() onlyCreator public{\n        gameClosed=true;\n        if(winnerAddress!=0x0000000000000000000000000000000000000000){\n            //if someone won\n            uint amount = this.balance;\n            creator.transfer(amount/2);\n            winnerAddress.transfer(amount/2);\n        }\n        else{\n            //if no-one won\n            creator.transfer(amount);\n        }\n    }\n    \n    function winnerAddress() view public returns(address){\n        require(gameClosed==true);\n        return winnerAddress;\n    }\n}\n",
  "sourcePath": "/home/shubh/work/solidty-prescreen/contracts/Lottery.sol",
  "compiler": {
    "name": "solc",
    "version": "0.4.19+commit.c4cbbb05.Emscripten.clang"
  },
  "schemaVersion": "2.0.0",
  "updatedAt": "2018-04-01T11:20:04.361Z"
}